:1000000009C0B0C020C01FC01EC01DC074C11BC02D
:100010001AC019C011241FBECFE9CDBF10E0A0E661
:10002000B0E0E6EBF3E002C005900D92AC36B1070C
:10003000D9F720E0ACE6B0E001C01D92AB37B207C3
:10004000E1F78ED1B6C1DCCF8FEF0895CF93DF9368
:100050009FB7F894C39ABB9AC39808B2E3E0C9E18A
:10006000DC2FDA95F1F780FB03F8E695879508BA5F
:10007000B9F79FBFDF91CF910895CF93DF93EC0144
:100080008991882311F0E2DFFBCFDF91CF910895B2
:10009000CF93DF93CDB7DD27C850CDBFFE0131969A
:1000A00098E0DF011D929A95E9F79E01285F3F4F86
:1000B0004AE0F9013197642F70D1905D91838823D4
:1000C00011F09F01F6CFC901D8DFC85FCDBFDF9126
:1000D000CF910895B998C1988FB582608FBD83B7CD
:1000E000816083BF89B7846089BF8AE786BF8BB789
:1000F00080648BBF85B78D7F85BF85B7816085BFE5
:10010000789408950F931F930091730010917400D9
:100110002091750030917600012B022B032BF1F01A
:100120000091730010917400209175003091760059
:10013000FC0100838091730090917400A091750080
:10014000B0917600FB01A0831092730010927400AE
:10015000109275001092760080E001C081E01F913E
:100160000F9108951F920F920FB60F9211242F93A3
:100170003F934F935F936F937F938F939F93AF932F
:10018000BF93809177009091780010927800109240
:10019000770026B3227030917200313059F030F080
:1001A000323009F48FC03330D1F096C0211194C0A1
:1001B00081E090C0222309F48CC0805992408F398D
:1001C000910508F086C083E0809372001092710060
:1001D00088EE9CE190937A00809379007DC0309105
:1001E0007100313029F138F0323009F45AC033301F
:1001F00009F454C06EC021116CC09C012B543140D5
:100200002D31310570F481E08093710010927000FF
:1002100010926C0010926D0010926E0010926F00A0
:100220005BC08C5991094D9708F053C082E033C0F0
:1002300030917000303208F04CC021114DC021E0E7
:10024000230F2093700041E050E060E070E08A35B9
:10025000910518F440E050E0BA0104C0440F551F66
:10026000661F771F3A95D2F780916C0090916D00D0
:10027000A0916E00B0916F00482B592B6A2B7B2BFD
:1002800040936C0050936D0060936E0070936F000C
:10029000203211F583E0809371001EC02111C6CF7A
:1002A00018C080916C0090916D00A0916E00B0918B
:1002B0006F008093730090937400A0937500B093C7
:1002C000760007C01092720010927A0010927900A6
:1002D00003C082E080937200BF91AF919F918F9194
:1002E0007F916F915F914F913F912F910F900FBE32
:1002F0000F901F9018951F920F920FB60F92112416
:100300002F933F938F939F938091770090917800E4
:100310009C012F5F3F4F309378002093770081310D
:10032000974210F0109272008091790090917A00BB
:10033000892B69F08091790090917A0001979093D0
:100340007A0080937900892B11F4109272009F91AA
:100350008F913F912F910F900FBE0F901F90189586
:10036000CF93DF9300D0CDB7DD27B4DEBE016F5F42
:100370007F4FCE010296C6DE8111F8CF80E690E075
:100380007CDE8A8185DE8CE261DE86E690E075DEC9
:1003900089817EDE8AE05ADEE9CF991B79E004C0CC
:1003A000991F961708F0961B881F7A95C9F78095B4
:0603B0000895F894FFCF50
:0C03B600616464723D00636D643D0000F2
:00000001FF
